{
  "transactions": [
    {
      "hash": "0xcde538b59834faba2873e6e1c5e146eb078098ef55903f94c4945a66fd188c32",
      "transactionType": "CREATE",
      "contractName": "InitializableContract",
      "contractAddress": "0x3ff6e8a719ca4817a72d90d02b452287c25703d6",
      "function": null,
      "arguments": [
        ""
      ],
      "transaction": {
        "from": "0xc4433891c12d3fcd0de65f79c56544089ac26a31",
        "gas": "0x6f351",
        "value": "0x0",
        "input": "0x608060405234801561000f575f80fd5b5060405161073a38038061073a83398101604081905261002e91610066565b5f80546001600160a01b03191633179055600161004b82826101ac565b505061026b565b634e487b7160e01b5f52604160045260245ffd5b5f6020808385031215610077575f80fd5b82516001600160401b038082111561008d575f80fd5b818501915085601f8301126100a0575f80fd5b8151818111156100b2576100b2610052565b604051601f8201601f19908116603f011681019083821181831017156100da576100da610052565b8160405282815288868487010111156100f1575f80fd5b5f93505b8284101561011257848401860151818501870152928501926100f5565b5f86848301015280965050505050505092915050565b600181811c9082168061013c57607f821691505b60208210810361015a57634e487b7160e01b5f52602260045260245ffd5b50919050565b601f8211156101a757805f5260205f20601f840160051c810160208510156101855750805b601f840160051c820191505b818110156101a4575f8155600101610191565b50505b505050565b81516001600160401b038111156101c5576101c5610052565b6101d9816101d38454610128565b84610160565b602080601f83116001811461020c575f84156101f55750858301515b5f19600386901b1c1916600185901b178555610263565b5f85815260208120601f198616915b8281101561023a5788860151825594840194600190910190840161021b565b508582101561025757878501515f19600388901b60f8161c191681555b505060018460011b0185555b505050505050565b6104c2806102785f395ff3fe608060405234801561000f575f80fd5b506004361061004a575f3560e01c8063158ef93e1461004e5780638da5cb5b14610070578063e21f37ce146100b4578063f62d1888146100c9575b5f80fd5b60025461005b9060ff1681565b60405190151581526020015b60405180910390f35b5f5461008f9073ffffffffffffffffffffffffffffffffffffffff1681565b60405173ffffffffffffffffffffffffffffffffffffffff9091168152602001610067565b6100bc6100de565b604051610067919061020b565b6100dc6100d7366004610284565b61016a565b005b600180546100eb9061032f565b80601f01602080910402602001604051908101604052809291908181526020018280546101179061032f565b80156101625780601f1061013957610100808354040283529160200191610162565b820191905f5260205f20905b81548152906001019060200180831161014557829003601f168201915b505050505081565b60025460ff16156101a7576040517f0dc149f000000000000000000000000000000000000000000000000000000000815260040160405180910390fd5b5f80547fffffffffffffffffffffffff0000000000000000000000000000000000000000163317905560016101dc82826103cc565b5050600280547fffffffffffffffffffffffffffffffffffffffffffffffffffffffffffffff00166001179055565b5f602080835283518060208501525f5b818110156102375785810183015185820160400152820161021b565b505f604082860101526040601f19601f8301168501019250505092915050565b7f4e487b71000000000000000000000000000000000000000000000000000000005f52604160045260245ffd5b5f60208284031215610294575f80fd5b813567ffffffffffffffff808211156102ab575f80fd5b818401915084601f8301126102be575f80fd5b8135818111156102d0576102d0610257565b604051601f8201601f19908116603f011681019083821181831017156102f8576102f8610257565b81604052828152876020848701011115610310575f80fd5b826020860160208301375f928101602001929092525095945050505050565b600181811c9082168061034357607f821691505b60208210810361037a577f4e487b71000000000000000000000000000000000000000000000000000000005f52602260045260245ffd5b50919050565b601f8211156103c757805f5260205f20601f840160051c810160208510156103a55750805b601f840160051c820191505b818110156103c4575f81556001016103b1565b50505b505050565b815167ffffffffffffffff8111156103e6576103e6610257565b6103fa816103f4845461032f565b84610380565b602080601f83116001811461042d575f84156104165750858301515b5f19600386901b1c1916600185901b178555610484565b5f85815260208120601f198616915b8281101561045b5788860151825594840194600190910190840161043c565b508582101561047857878501515f19600388901b60f8161c191681555b505060018460011b0185555b50505050505056fea2646970667358221220a625c6e619eec2e143d94828516968b22d23e63bfcff3049c3a9eefdfa1da04d64736f6c6343000817003300000000000000000000000000000000000000000000000000000000000000200000000000000000000000000000000000000000000000000000000000000000",
        "nonce": "0x1",
        "chainId": "0xaa36a7"
      },
      "additionalContracts": [],
      "isFixedGasLimit": false
    },
    {
      "hash": "0x117c1bb47d5340a37b92067dfb28e1d10ccf2753a12136e7d3183710b4677b2c",
      "transactionType": "CALL",
      "contractName": "InitializableContract",
      "contractAddress": "0x3ff6e8a719ca4817a72d90d02b452287c25703d6",
      "function": "initialize(string)",
      "arguments": [
        "Initialized via separate transaction"
      ],
      "transaction": {
        "from": "0xc4433891c12d3fcd0de65f79c56544089ac26a31",
        "to": "0x3ff6e8a719ca4817a72d90d02b452287c25703d6",
        "gas": "0x28b17",
        "value": "0x0",
        "input": "0xf62d188800000000000000000000000000000000000000000000000000000000000000200000000000000000000000000000000000000000000000000000000000000024496e697469616c697a656420766961207365706172617465207472616e73616374696f6e00000000000000000000000000000000000000000000000000000000",
        "nonce": "0x2",
        "chainId": "0xaa36a7"
      },
      "additionalContracts": [],
      "isFixedGasLimit": false
    }
  ],
  "receipts": [
    {
      "status": "0x1",
      "cumulativeGasUsed": "0xb65733",
      "logs": [],
      "logsBloom": "0x00000000000000000000000000000000000000000000000000000000000000000000000000000000000000000000000000000000000000000000000000000000000000000000000000000000000000000000000000000000000000000000000000000000000000000000000000000000000000000000000000000000000000000000000000000000000000000000000000000000000000000000000000000000000000000000000000000000000000000000000000000000000000000000000000000000000000000000000000000000000000000000000000000000000000000000000000000000000000000000000000000000000000000000000000000000",
      "type": "0x2",
      "transactionHash": "0xcde538b59834faba2873e6e1c5e146eb078098ef55903f94c4945a66fd188c32",
      "transactionIndex": "0x77",
      "blockHash": "0x2f1e2d5230402d499dccbd478f966c9fbd85e489b3e5effaa8b885f0e9d13f6d",
      "blockNumber": "0x78463e",
      "gasUsed": "0x558b5",
      "effectiveGasPrice": "0x8bfa8737",
      "from": "0xc4433891c12d3fcd0de65f79c56544089ac26a31",
      "to": null,
      "contractAddress": "0x3ff6e8a719ca4817a72d90d02b452287c25703d6"
    },
    {
      "status": "0x1",
      "cumulativeGasUsed": "0xb81464",
      "logs": [],
      "logsBloom": "0x00000000000000000000000000000000000000000000000000000000000000000000000000000000000000000000000000000000000000000000000000000000000000000000000000000000000000000000000000000000000000000000000000000000000000000000000000000000000000000000000000000000000000000000000000000000000000000000000000000000000000000000000000000000000000000000000000000000000000000000000000000000000000000000000000000000000000000000000000000000000000000000000000000000000000000000000000000000000000000000000000000000000000000000000000000000",
      "type": "0x2",
      "transactionHash": "0x117c1bb47d5340a37b92067dfb28e1d10ccf2753a12136e7d3183710b4677b2c",
      "transactionIndex": "0x78",
      "blockHash": "0x2f1e2d5230402d499dccbd478f966c9fbd85e489b3e5effaa8b885f0e9d13f6d",
      "blockNumber": "0x78463e",
      "gasUsed": "0x1bd31",
      "effectiveGasPrice": "0x8bfa8737",
      "from": "0xc4433891c12d3fcd0de65f79c56544089ac26a31",
      "to": "0x3ff6e8a719ca4817a72d90d02b452287c25703d6",
      "contractAddress": null
    }
  ],
  "libraries": [],
  "pending": [],
  "returns": {},
  "timestamp": 1741722316,
  "chain": 11155111,
  "commit": null
}